:100000000C9424010C9441010C9441010C94410185
:100010000C94A0010C943F050C9441010C944101F7
:100020000C9441010C9441010C9441010C94410148
:100030000C9441010C9441010C9443010C94410136
:100040000C9441010C9441010C9441010C94410128
:100050000C9441010C9441010C9441010C94410118
:100060000C9441010C944101000000000000005F6D
:1000700000000007000700147F147F14242A7F2A41
:10008000122313086462364955225000050300000C
:10009000001C2241000041221C0014083E081408E4
:1000A000083E0808005030000008080808080060F2
:1000B00060000020100804023E5149453E00427F86
:1000C000400042615149462141454B311814127F8D
:1000D0001027454545393C4A494930017109050316
:1000E0003649494936064949291E0036360000007E
:1000F0005636000008142241001414141414004150
:100100002214080201510906324979413E7E11113B
:10011000117E7F494949363E414141227F4141227A
:100120001C7F494949417F090909013E4149497AF2
:100130007F0808087F00417F41002040413F017F48
:10014000081422417F404040407F020C027F7F0420
:1001500008107F3E4141413E7F090909063E415159
:10016000215E7F09192946464949493101017F012C
:10017000013F4040403F1F2040201F3F4038403F4C
:100180006314081463070870080761514945430068
:100190007F41410002040810200041417F00040219
:1001A0000102044040404040000102040020545439
:1001B00054787F48444438384444442038444448C0
:1001C0007F3854545418087E0901020C5252523E92
:1001D0007F0804047800447D40002040443D007FB7
:1001E0001028440000417F40007C041804787C08FB
:1001F00004047838444444387C1414140808141453
:10020000187C7C080404084854545420043F44409B
:10021000203C4040207C1C2040201C3C4030403C86
:1002200044281028440C5050503C4464544C440022
:100230000836410000007F00000041360800100829
:10024000081008000000000011241FBECFEFD8E006
:10025000DEBFCDBF11E0A0E0B1E0E0E6FDE102C00D
:1002600005900D92AA37B107D9F723E0AAE7B1E0CC
:1002700001C01D92AF38B207E1F70E940C080C9440
:10028000AE0E0C9400001F920F920FB60F92112425
:10029000CF92DF92EF92FF922F933F934F935F9312
:1002A0006F937F938F939F93AF93BF93EF93FF933E
:1002B000C0909101D0909201E0909301F090940150
:1002C0008FEFC81AD80AE80AF80AC0929101D092B2
:1002D0009201E0929301F0929401C701B60122E3EA
:1002E00030E040E050E00E94930B672B682B692BB5
:1002F00019F081E080938C01C701B6012CE231E056
:1003000040E050E00E94930B672B682B692B19F09B
:1003100081E080938B01FF91EF91BF91AF919F910D
:100320008F917F916F915F914F913F912F91FF90AE
:10033000EF90DF90CF900F900FBE0F901F90189509
:100340001F920F920FB60F9211248F939F9381E00B
:1003500090918801911180E0809388019F918F9105
:100360000F900FBE0F901F9018950F931F93CF9370
:10037000DF93CDB7DEB768970FB6F894DEBF0FBE38
:10038000CDBF80918D01882321F08DE480937A0187
:100390001AC081E480937A0120918F0130919001FD
:1003A000A9E8B8E80E94B50B969587959295829535
:1003B0008F7089279F70892799E0981B909302017D
:1003C0008F5F80930001809102011F928F9305E15E
:1003D00011E01F930F93CE0101969F938F930E947C
:1003E000C40B809100011F928F931F930F93CE0136
:1003F00004969F938F930E94C40B809101011F92DA
:100400008F931F930F93CE0107969F938F930E9414
:10041000C40B809190018F9380918F018F931F93D4
:100420000F93CE010A969F938F930E94C40B8091E5
:100430008A018F93809189018F931F930F93CE012F
:100440000F969F938F930E94C40B809185011F92FA
:100450008F931F930F93CE0143969F938F930E9488
:10046000C40B0FB6F894DEBF0FBECDBF80918601DE
:100470001F928F931F930F93CE0146969F938F9356
:100480000E94C40B809187010F900F900F900F90E6
:100490000F900F90833009F075C280918E018130EA
:1004A00009F4A2C038F0823009F438C1833009F46D
:1004B000CFC1DAC20E94E10848E26FE280E00E9408
:1004C000BA0965E080E00E94CD0961E088E191E031
:1004D0000E94A90965E08EE10E94CD0961E080914A
:1004E0007A010E94230965E08AE20E94CD0961E059
:1004F0008DE191E00E94A9096FE080E00E94CD09A2
:1005000061E08FE191E00E94A9096FE08EE10E9415
:10051000CD0961E0CE0101960E94A9096FE083E256
:100520000E94CD0961E084E291E00E94A90960E0A7
:1005300082E30E94CD0962E0CE010F960E94A909D4
:100540006FE082E30E94CD0961E086E291E00E94C3
:10055000A90969E182E30E94CD0962E0CE010A9611
:100560000E94A90968E282E30E94CD0961E08AE263
:1005700091E00E94A90969E180E00E94CD0961E053
:1005800080E391E00E94A90969E18EE10E94CD0912
:1005900061E0CE0104960E94A90969E183E20E940C
:1005A000CD0961E084E291E00E94A90963E280E064
:1005B0000E94CD0961E085E391E00E94A90963E210
:1005C0008EE10E94CD0961E0CE0107960E94A90943
:1005D00063E283E20E94CD0961E084E291E00E943F
:1005E000A9090E94D20940C20E94E10848E26FE2D4
:1005F00080E00E94BA0965E080E00E94CD0961E0D8
:1006000088E191E00E94A90965E08EE10E94CD0990
:1006100061E080917A010E9423096FE080E00E94EE
:10062000CD0961E08FE191E00E94A9096FE08EE1C0
:100630000E94CD0961E0CE0101960E94A9096FE0F8
:1006400083E20E94CD0961E084E291E00E94A90961
:100650006FE08AE20E94CD0961E08DE191E00E94A5
:10066000A90960E082E30E94CD0962E0CE010F9605
:100670000E94A9096FE082E30E94CD0961E086E251
:1006800091E00E94A90969E182E30E94CD0962E03C
:10069000CE010A960E94A90968E282E30E94CD0970
:1006A00061E08AE291E00E94A90969E180E00E948C
:1006B000CD0961E080E391E00E94A90969E18EE142
:1006C0000E94CD0961E0CE0104960E94A90969E16A
:1006D00083E20E94CD0961E084E291E00E94A909D1
:1006E00063E280E00E94CD0961E085E391E00E9431
:1006F000A90963E28EE10E94CD0961E0CE0107966F
:100700000E94A90963E283E20E94CD0961E084E2CC
:1007100091E00E94A9090E94D209A6C10E94E108A5
:1007200048E26FE280E00E94BA0965E080E00E9442
:10073000CD0961E088E191E00E94A90965E08EE1C0
:100740000E94CD0961E080917A010E9423096FE047
:1007500080E00E94CD0961E08FE191E00E94A9094B
:100760006FE08EE10E94CD0961E0CE0101960E940A
:10077000A9096FE083E20E94CD0961E084E291E083
:100780000E94A90960E082E30E94CD0962E0CE01E7
:100790000F960E94A9096FE082E30E94CD0961E0F3
:1007A00086E291E00E94A90969E182E30E94CD09F5
:1007B00062E0CE010A960E94A90968E282E30E94E3
:1007C000CD0961E08AE291E00E94A90969E180E037
:1007D0000E94CD0961E080E391E00E94A90969E1EE
:1007E0008EE10E94CD0961E0CE0104960E94A90924
:1007F00069E183E20E94CD0961E084E291E00E9418
:10080000A90969E18AE20E94CD0961E08DE191E0E8
:100810000E94A90963E280E00E94CD0961E085E3BE
:1008200091E00E94A90963E28EE10E94CD0961E096
:10083000CE0107960E94A90963E283E20E94CD09D6
:1008400061E084E291E00E94A9090E94D2090CC1F2
:100850000E94E10848E26FE280E00E94BA0965E088
:1008600080E00E94CD0961E088E191E00E94A90941
:1008700065E08EE10E94CD0961E080917A010E94DD
:1008800023096FE080E00E94CD0961E08FE191E0F3
:100890000E94A9096FE08EE10E94CD0961E0CE01BE
:1008A00001960E94A9096FE083E20E94CD0961E0F0
:1008B00084E291E00E94A90960E082E30E94CD09F0
:1008C00062E0CE010F960E94A9096FE082E30E94C8
:1008D000CD0961E086E291E00E94A90969E182E325
:1008E0000E94CD0962E0CE010A960E94A90968E241
:1008F00082E30E94CD0961E08AE291E00E94A909A9
:1009000069E180E00E94CD0961E080E391E00E940E
:10091000A90969E18EE10E94CD0961E0CE0104964A
:100920000E94A90969E183E20E94CD0961E084E2A5
:1009300091E00E94A90963E280E00E94CD0961E094
:1009400085E391E00E94A90963E28EE10E94CD094E
:1009500061E0CE0107960E94A90963E283E20E944A
:10096000CD0961E084E291E00E94A90963E28AE294
:100970000E94CD0961E08DE191E00E94A9090E94E9
:10098000D20972C080918E01853079F1863009F4E8
:1009900043C0843009F068C00E94E10860E080E054
:1009A0000E94CD0961E08AE391E00E94A9096FE00D
:1009B00080E00E94CD0961E087E491E00E94A909EE
:1009C00069E18AE00E94CD0963E0CE0146960E946B
:1009D000A9096EE182E30E94CD0962E084E291E020
:1009E0000E94A9090E94D2093FC00E94E10865E067
:1009F00080E00E94CD0962E086E591E00E94A909AD
:100A000069E188E20E94CD0962E084E591E00E94FC
:100A1000A9090E94D20928C00E94E10860E080E094
:100A20000E94CD0961E08EE591E00E94A9096FE086
:100A300080E00E94CD0961E08AE691E00E94A90968
:100A400069E18AE00E94CD0963E0CE0143960E94ED
:100A5000A9096EE182E30E94CD0962E084E291E09F
:100A60000E94A9090E94D20968960FB6F894DEBFC9
:100A70000FBECDBFDF91CF911F910F9108951F92AF
:100A80000F920FB60F921124CF92DF92EF92FF9246
:100A90002F933F934F935F936F937F938F939F9386
:100AA000AF93BF93EF93FF934A9929C0C0909101F0
:100AB000D0909201E0909301F09094018091810197
:100AC00090918201A0918301B0918401A7019601C8
:100AD000281B390B4A0B5B0B60E67AEE80E090E056
:100AE0000E94930B3093900120938F01C09281015B
:100AF000D0928201E0928301F0928401EFC04C9980
:100B00004AC080918E01813071F028F08230D1F09E
:100B1000833039F134C081E090918D01911180E0F2
:100B200080938D012CC080910201893018F48F5F71
:100B30008093020180910201893008F189E080935D
:100B400002011DC080910001893018F48F5F8093ED
:100B5000000180910001893090F089E080930001CC
:100B60000EC080910101893018F48F5F80930101DC
:100B700080910101893018F089E0809301010E9481
:100B8000B5012FEF83EC99E0215080409040E1F7D0
:100B900000C00000A3C04D9950C080918E018130EB
:100BA000A1F028F0823001F1833069F13AC08091E0
:100BB0008701882319F081508093870180918701F4
:100BC000823078F5109287012CC08091020182302A
:100BD00018F081508093020180910201823008F563
:100BE00081E0809302011DC080910001823018F0E5
:100BF00081508093000180910001811112C081E039
:100C0000809300010EC080910101823018F0815064
:100C10008093010180910101823018F481E080937A
:100C200001010E94B5012FEF83EC99E02150804033
:100C30009040E1F700C0000051C04E994FC0809134
:100C40008E01853089F08630E1F0843039F580916D
:100C500087018F5F809387018330A8F183E08093C1
:100C6000870110928E012FC0809187018F5F809342
:100C70008701833040F183E08093870110928E01D9
:100C800022C0809187018F5F809387018330D8F0E5
:100C900083E08093870110928E0115C090918D01A1
:100CA000992389F090918001992341F0833020F4B9
:100CB0008F5F80938E0102C010928E0181E09111AE
:100CC00080E0809380010E94B5012FEF83EC99E0D2
:100CD000215080409040E1F700C00000FF91EF916B
:100CE000BF91AF919F918F917F916F915F914F9144
:100CF0003F912F91FF90EF90DF90CF900F900FBE1C
:100D00000F901F9018954F925F926F927F928F92E3
:100D10009F92AF92BF92CF92DF92EF92FF92CF93CA
:100D2000DF93CDB7DEB762970FB6F894DEBF0FBE84
:100D3000CDBF22E1E3E0F1E0DE01119601900D92DA
:100D40002A95E1F7E0917F01EE0FFF0B21E030E003
:100D50002C0F3D1FE20FF31F208125B9E0917F0189
:100D6000EE0FFF0B21E030E02C0F3D1FE20FF31FD1
:100D70002081318130FF04C02BB120682BB903C022
:100D80002BB12F772BB920917F0124300CF04FC06D
:100D900080907B0190907C01A0907D01B0907E01BD
:100DA0002B013C01481859086A087B084091020150
:100DB0003AEF439FA00111246A01550FEE08FF0886
:100DC0004C145D046E047F0478F02F5F20937F0144
:100DD000C80CD91CEA1CFB1CC0927B01D0927C0180
:100DE000E0927D01F0927E0120918701211103C0E4
:100DF00026E020938E01C0907B01D0907C01E09092
:100E00007D01F0907E01DC01CB018C199D09AE09BA
:100E1000BF09883E9340A105B10509F0A6C08091A5
:100E200085018150809385010E94B5019EC02530C7
:100E30000CF040C0309102013093850130910001E7
:100E40003093860130918701311103C035E0309332
:100E50008E01C0907B01D0907C01E0907D01F090EC
:100E60007E014B015C018C189D08AE08BF083091D3
:100E7000010188EE93E0389FA001399F500D1124A5
:100E8000CA01550FAA0BBB0B88169906AA06BB060A
:100E900008F46BC02F5F20937F018C0D9D1DAE1D4C
:100EA000BF1D80937B0190937C01A0937D01B09343
:100EB0007E015BC029300CF04EC080907B01909089
:100EC0007C01A0907D01B0907E012B013C0148186F
:100ED00059086A087B08409100013AEF439FA0013E
:100EE00011246A01550FEE08FF08C414D504E60466
:100EF000F70478F02F5F20937F01C80CD91CEA1CFF
:100F0000FB1CC0927B01D0927C01E0927D01F092AB
:100F10007E0120918701211103C024E020938E01DE
:100F2000C0907B01D0907C01E0907D01F0907E012B
:100F3000DC01CB018C199D09AE09BF09883E9340A5
:100F4000A105B10591F480918601815080938601BD
:100F50000E94B5010AC010927F0160937B017093DB
:100F60007C0180937D0190937E0162960FB6F89488
:100F7000DEBF0FBECDBFDF91CF91FF90EF90DF902E
:100F8000CF90BF90AF909F908F907F906F905F9029
:100F90004F900895CF93DF93EC0188818823C1F1AE
:100FA000609178007091790080E090E00E94F90AE9
:100FB0009B01AC0160E871EC89E799E40E94580A52
:100FC00020E030E04AE754E40E94EB090E94CA0A9C
:100FD00070938A01609389016C327140B8F48091FA
:100FE0008801813039F020918F01309190012115D5
:100FF000310521F08FEF8093B4000AC0882311F0EF
:10100000232B31F48DE48093B40002C01092B4001D
:101010001882DF91CF9108958FEF84B988E88AB95B
:1010200084E78BB991E297B990E298B996E09093F2
:10103000680090E490936C0080936D0022E024BDE2
:1010400083E085BD39EF37BD20936E0090937C001F
:1010500097EE90937A0010927B0010927E0093EAB4
:101060009093B0008093B1001092B40078940E94E5
:10107000890880910001809386018091020180930C
:1010800085016091910170919201809193019091FD
:1010900094010E9483060E94B5018BE891E00E94B2
:1010A000CA07EFCF98B19D7F98B9662329F098B110
:1010B000986098B990E01FC098B1977F98B9FACF1F
:1010C00047E050E0491B5109282F30E002C0359518
:1010D00027954A95E2F720FF04C028B1206128B97E
:1010E00003C028B12F7E28B928B1206228B928B1C1
:1010F0002F7D28B99F5F983018F388B1826088B936
:10110000089560E00E945208089561E00E9452082C
:101110000895CF93DF9387B1826087B987B18460E8
:1011200087B987B1886087B987B1806187B987B18E
:10113000806287B988B1846088B988B1826088B9D3
:1011400083EC99E00197F1F700C0000088B18B7F34
:1011500088B98BE594E40197F1F700C0000088B1ED
:10116000846088B988B18D7F88B981E20E94810846
:1011700083E10E94810886E00E94810882EC0E943F
:10118000810880E20E94810889E00E94810880E84D
:101190000E94810880E40E948108C0E0D0E004C081
:1011A00080E00E9485082196C83F91E0D907C0F3EE
:1011B00088E00E9481088CE00E948108DF91CF9135
:1011C000089580E80E94810880E40E9481081092BE
:1011D0008D0310928E0380E090E005C0FC01EB5679
:1011E000FE4F10820196883F21E09207B8F30895E0
:1011F000262F26952695269590E034E5239F800D91
:10120000911D1124442379F0677021E030E002C081
:10121000220F331F6A95E2F7FC01EB56FE4F8081E7
:10122000282B20830895677021E030E002C0220F50
:10123000331F6A95E2F7FC01EB56FE4F2095808143
:10124000282320830895EF92FF920F931F93CF934B
:10125000DF93E82EF62E00E045C02E2D30E0205220
:101260003109802F6F2D0E94870BF901EE0FFF1FB0
:10127000EE0FFF1FE20FF31FE80FF11DE859FF4FBC
:10128000E491812F0E94870BF0E002C0F595E7956D
:101290008A95E2F7E0FF0AC060918E0380918D038A
:1012A000610F41E0800F0E94F80809C060918E0331
:1012B00080918D03610F40E0800F0E94F8081F5F4E
:1012C00001C010E0212F30E0CE01880F991F880F58
:1012D000991F880F991F8C1B9D0B281739070CF439
:1012E000BCCF0F5F202F30E0CF2DD0E0CE01880F94
:1012F000991F880F991F8C0F9D1F281739070CF312
:10130000EDE8F3E08F2D880F880F8F0D9081890F06
:101310008F5F8083843570F010928D03EEE8F3E0E8
:101320008F2D880F880F880F982F9F198081890F24
:101330008F5F808380918E03803320F010928D0325
:1013400010928E03DF91CF911F910F91FF90EF903C
:1013500008951F93CF93DF93EC01162F04C02196BD
:10136000612F0E94230988818111F9CFDF91CF91EC
:101370001F9108951F93CF93DF93C82F162FD42F5B
:1013800006C041E06C2F812F0E94F808CF5FDC1768
:10139000C0F7DF91CF911F91089580938D036093E3
:1013A0008E030895CF93DF9380E80E94810880E444
:1013B0000E948108C0E0D0E007C0FE01EB56FE4F5E
:1013C00080810E9485082196C83F81E0D807A8F354
:1013D000DF91CF9108955058BB27AA270E94030A96
:1013E0000C944D0B0E943F0B38F00E94460B20F0EE
:1013F00039F49F3F19F426F40C943C0B0EF4E0955D
:10140000E7FB0C94360BE92F0E945E0B58F3BA17DA
:10141000620773078407950720F079F4A6F50C940A
:10142000800B0EF4E0950B2EBA2FA02D0B01B90105
:1014300090010C01CA01A0011124FF27591B99F04A
:10144000593F50F4503E68F11A16F040A22F232F56
:10145000342F4427585FF3CF469537952795A795A6
:10146000F0405395C9F77EF41F16BA0B620B730B4D
:10147000840BBAF09150A1F0FF0FBB1F661F771FBE
:10148000881FC2F70EC0BA0F621F731F841F48F473
:10149000879577956795B795F7959E3F08F0B0CFFC
:1014A0009395880F08F09927EE0F979587950895E3
:1014B0000E946C0A0C944D0B0E94460B58F00E943F
:1014C0003F0B40F029F45F3F29F00C94360B51118B
:1014D0000C94810B0C943C0B0E945E0B68F39923D7
:1014E000B1F3552391F3951B550BBB27AA27621720
:1014F0007307840738F09F5F5F4F220F331F441F2D
:10150000AA1FA9F335D00E2E3AF0E0E832D0915060
:101510005040E695001CCAF72BD0FE2F29D0660F4D
:10152000771F881FBB1F261737074807AB07B0E890
:1015300009F0BB0B802DBF01FF2793585F4F3AF096
:101540009E3F510578F00C94360B0C94810B5F3F55
:10155000E4F3983ED4F3869577956795B795F7951C
:101560009F5FC9F7880F911D9695879597F9089504
:10157000E1E0660F771F881FBB1F621773078407A0
:10158000BA0720F0621B730B840BBA0BEE1F88F7AF
:10159000E09508950E94660B88F09F5798F0B92F48
:1015A0009927B751B0F0E1F0660F771F881F991F98
:1015B0001AF0BA95C9F714C0B13091F00E94800BAF
:1015C000B1E008950C94800B672F782F8827B85FBF
:1015D00039F0B93FCCF3869577956795B395D9F7F0
:1015E0003EF490958095709561957F4F8F4F9F4FFA
:1015F0000895E89409C097FB3EF490958095709506
:1016000061957F4F8F4F9F4F9923A9F0F92F96E94E
:10161000BB279395F695879577956795B795F111C3
:10162000F8CFFAF4BB0F11F460FF1BC06F5F7F4F60
:101630008F4F9F4F16C0882311F096E911C0772372
:1016400021F09EE8872F762F05C0662371F096E87B
:10165000862F70E060E02AF09A95660F771F881F4A
:10166000DAF7880F9695879597F9089597F99F6708
:1016700080E870E060E008959FEF80EC089500241A
:101680000A941616170618060906089500240A94E7
:1016900012161306140605060895092E0394000C6D
:1016A00011F4882352F0BB0F40F4BF2B11F460FFFC
:1016B00004C06F5F7F4F8F4F9F4F089557FD905825
:1016C000440F551F59F05F3F71F04795880F97FB06
:1016D000991F61F09F3F79F08795089512161306C0
:1016E0001406551FF2CF4695F1DF08C016161706EF
:1016F0001806991FF1CF8695710561050894089524
:10170000E894BB2766277727CB0197F90895991BA3
:1017100079E004C0991F961708F0961B881F7A95E8
:10172000C9F780950895A1E21A2EAA1BBB1BFD01E3
:101730000DC0AA1FBB1FEE1FFF1FA217B307E407B0
:10174000F50720F0A21BB30BE40BF50B661F771F08
:10175000881F991F1A9469F76095709580959095E8
:101760009B01AC01BD01CF010895A29FB001B39FC1
:10177000C001A39F700D811D1124911DB29F700D9A
:10178000811D1124911D0895AEE0B0E0EAECFBE06C
:101790000C94850E0D891E8986E08C831A8309833B
:1017A0008FEF9FE79E838D83AE01475E5F4F6F890A
:1017B000788DCE0101960E94E60BEF81F885E00F4F
:1017C000F11F10822E96E4E00C94A10EABE0B0E085
:1017D000ECEEFBE00C94770E6C017B018A01FC01BE
:1017E00017821682838181FFCCC1CE0101963C0114
:1017F000F6019381F70193FD859193FF81917F011C
:10180000882309F4BAC1853239F493FD859193FF99
:1018100081917F01853229F4B60190E00E94DD0DAF
:10182000E7CF912C212C312CFFE1F315D8F08B322E
:1018300079F038F4803279F08332A1F4232D2061DD
:101840001DC08D3261F0803369F4232D216016C0F4
:10185000832D8260382EE32DE4603E2E2AC0F32DC6
:10186000F8601DC037FC2DC020ED280F2A3040F055
:101870008E32B9F436FC81C1232D2064322E19C07A
:1018800036FE06C08AE0989E200D1124922E11C0CB
:10189000EAE02E9E200D1124222EF32DF0623F2E21
:1018A00008C08C3621F4832D8068382E02C088361B
:1018B00041F4F70193FD859193FF81917F0181119F
:1018C000B3CF982F9F7D9554933028F40C5F1F4F12
:1018D0009FE399830DC0833631F0833771F08335F0
:1018E00009F059C021C0F801808189830E5F1F4F24
:1018F00088248394912C530113C02801F2E04F0EE9
:10190000511CF801A080B18036FE03C0692D70E043
:1019100002C06FEF7FEFC5010E94D20D4C01820122
:10192000F32DFF773F2E16C0280122E0420E511CF6
:10193000F801A080B18036FE03C0692D70E002C0BE
:101940006FEF7FEFC5010E94C70D4C01F32DF068CA
:101950003F2E820133FC1BC0822D90E08816990631
:10196000B0F4B60180E290E00E94DD0D2A94F4CF3D
:10197000F50137FC859137FE81915F01B60190E05A
:101980000E94DD0D21102A9421E0821A9108811411
:10199000910471F7E8C0843611F0893641F5F801F9
:1019A00037FE07C060817181828193810C5F1F4F78
:1019B00008C060817181072E000C880B990B0E5FA7
:1019C0001F4FF32DFF763F2E97FF09C0909580950E
:1019D000709561957F4F8F4F9F4FF0683F2E2AE0A3
:1019E00030E0A3010E94190E882E861845C0853765
:1019F00031F4232D2F7EB22E2AE030E025C0932D26
:101A0000997FB92E8F36C1F018F4883579F0B5C0BA
:101A1000803719F0883721F0B0C0E92FE061BE2E81
:101A2000B4FE0DC0FB2DF460BF2E09C034FE0AC009
:101A3000292F2660B22E06C028E030E005C020E144
:101A400030E002C020E132E0F801B7FE07C060815B
:101A50007181828193810C5F1F4F06C0608171810B
:101A600080E090E00E5F1F4FA3010E94190E882EA8
:101A70008618FB2DFF773F2E36FE0DC0232D2E7FBF
:101A8000A22E891458F434FE0BC032FC09C0832DF9
:101A90008E7EA82E05C0B82CA32C03C0B82C01C084
:101AA000B92CA4FE0FC0FE01E80DF11D808180332A
:101AB00021F49A2D997EA92E09C0A2FE06C0B394E6
:101AC000B39404C08A2D867809F0B394A3FC11C0A6
:101AD000A0FE06C0B21488F4280C922C9B180EC0ED
:101AE000B21460F4B60180E290E00E94DD0DB39480
:101AF000F7CFB21418F42B1802C0982C212CA4FE96
:101B000010C0B60180E390E00E94DD0DA2FE17C078
:101B1000A1FC03C088E790E002C088E590E0B60130
:101B20000CC08A2D867859F0A1FE02C08BE201C05C
:101B300080E2A7FC8DE2B60190E00E94DD0D8914E1
:101B400038F4B60180E390E00E94DD0D9A94F7CF5F
:101B50008A94F301E80DF11D8081B60190E00E94A6
:101B6000DD0D8110F5CF222009F442CEB60180E2CE
:101B700090E00E94DD0D2A94F6CFF60186819781D0
:101B800002C08FEF9FEF2B96E2E10C94930EFC01C5
:101B90000590615070400110D8F7809590958E0F98
:101BA0009F1F0895FC016150704001900110D8F70B
:101BB000809590958E0F9F1F08950F931F93CF933D
:101BC000DF93FB01238121FD03C08FEF9FEF2CC02A
:101BD00022FF16C046815781248135814217530761
:101BE00044F4A081B1819D012F5F3F4F3183208359
:101BF0008C93268137812F5F3F4F3783268314C014
:101C00008B01EC01FB010084F185E02D0995892B06
:101C1000E1F6D80116968D919C911797019617962B
:101C20009C938E931697CE01DF91CF911F910F91C8
:101C30000895FA01AA27283051F1203181F1E89462
:101C40006F936E7F6E5F7F4F8F4F9F4FAF4FB1E0AF
:101C50003ED0B4E03CD0670F781F891F9A1FA11DAA
:101C6000680F791F8A1F911DA11D6A0F711D811DAB
:101C7000911DA11D20D009F468943F912AE0269F70
:101C800011243019305D3193DEF6CF010895462FCF
:101C90004770405D4193B3E00FD0C9F7F6CF462FB0
:101CA0004F70405D4A3318F0495D31FD4052419319
:101CB00002D0A9F7EACFB4E0A695979587957795D6
:101CC0006795BA95C9F700976105710508959B015D
:101CD000AC010A2E06945795479537952795BA95E6
:101CE000C9F7620F731F841F951FA01D08952F92BF
:101CF0003F924F925F926F927F928F929F92AF929C
:101D0000BF92CF92DF92EF92FF920F931F93CF93E8
:101D1000DF93CDB7DEB7CA1BDB0B0FB6F894DEBF7F
:101D20000FBECDBF09942A88398848885F846E84A5
:101D30007D848C849B84AA84B984C884DF80EE80EF
:101D4000FD800C811B81AA81B981CE0FD11D0FB6F8
:101D5000F894DEBF0FBECDBFED010895F894FFCF1C
:101D60000101010F000700030001000001F00070F5
:101D700000300010002575004D6F646F003C00546A
:101D80002E56640073006C757800632F6D696E00C9
:101D9000542E566D00542E416D0020434152524F37
:101DA000205041524521005045444553545245204E
:101DB0005349474121004154454E43414F0043415F
:101DC00052524F20534947412100504544455354F6
:0A1DD0005245205041524521000009
:00000001FF
